{
  "_format": "hh-sol-artifact-1",
  "contractName": "WavePortal",
  "sourceName": "contracts/WavePortal.sol",
  "abi": [
    {
      "inputs": [],
      "stateMutability": "payable",
      "type": "constructor"
    },
    {
      "anonymous": false,
      "inputs": [
        {
          "indexed": true,
          "internalType": "address",
          "name": "from",
          "type": "address"
        },
        {
          "indexed": false,
          "internalType": "uint256",
          "name": "timestamp",
          "type": "uint256"
        },
        {
          "indexed": false,
          "internalType": "string",
          "name": "message",
          "type": "string"
        }
      ],
      "name": "NewWave",
      "type": "event"
    },
    {
      "inputs": [],
      "name": "getAllWaves",
      "outputs": [
        {
          "components": [
            {
              "internalType": "address",
              "name": "waver",
              "type": "address"
            },
            {
              "internalType": "string",
              "name": "message",
              "type": "string"
            },
            {
              "internalType": "uint256",
              "name": "timestamp",
              "type": "uint256"
            }
          ],
          "internalType": "struct WavePortal.Wave[]",
          "name": "",
          "type": "tuple[]"
        }
      ],
      "stateMutability": "view",
      "type": "function"
    },
    {
      "inputs": [],
      "name": "getTotalWaves",
      "outputs": [
        {
          "internalType": "uint256",
          "name": "",
          "type": "uint256"
        }
      ],
      "stateMutability": "view",
      "type": "function"
    },
    {
      "inputs": [],
      "name": "kingWaver",
      "outputs": [
        {
          "internalType": "address",
          "name": "",
          "type": "address"
        }
      ],
      "stateMutability": "view",
      "type": "function"
    },
    {
      "inputs": [
        {
          "internalType": "address",
          "name": "",
          "type": "address"
        }
      ],
      "name": "lastWavedAt",
      "outputs": [
        {
          "internalType": "uint256",
          "name": "",
          "type": "uint256"
        }
      ],
      "stateMutability": "view",
      "type": "function"
    },
    {
      "inputs": [
        {
          "internalType": "string",
          "name": "_message",
          "type": "string"
        }
      ],
      "name": "wave",
      "outputs": [],
      "stateMutability": "nonpayable",
      "type": "function"
    },
    {
      "inputs": [
        {
          "internalType": "address",
          "name": "",
          "type": "address"
        }
      ],
      "name": "wavers",
      "outputs": [
        {
          "internalType": "uint256",
          "name": "",
          "type": "uint256"
        }
      ],
      "stateMutability": "view",
      "type": "function"
    }
  ],
  "bytecode": "0x60806040526200003360405180606001604052806025815260200162001a7e602591396200005b60201b62000a981760201c565b60644442620000439190620001a8565b6200004f919062000245565b600081905550620002ec565b620000fb8160405160240162000072919062000168565b6040516020818303038152906040527f41304fac000000000000000000000000000000000000000000000000000000007bffffffffffffffffffffffffffffffffffffffffffffffffffffffff19166020820180517bffffffffffffffffffffffffffffffffffffffffffffffffffffffff8381831617835250505050620000fe60201b60201c565b50565b60008151905060006a636f6e736f6c652e6c6f679050602083016000808483855afa5050505050565b600062000134826200018c565b62000140818562000197565b9350620001528185602086016200020f565b6200015d81620002db565b840191505092915050565b6000602082019050818103600083015262000184818462000127565b905092915050565b600081519050919050565b600082825260208201905092915050565b6000620001b58262000205565b9150620001c28362000205565b9250827fffffffffffffffffffffffffffffffffffffffffffffffffffffffffffffffff03821115620001fa57620001f96200027d565b5b828201905092915050565b6000819050919050565b60005b838110156200022f57808201518184015260208101905062000212565b838111156200023f576000848401525b50505050565b6000620002528262000205565b91506200025f8362000205565b925082620002725762000271620002ac565b5b828206905092915050565b7f4e487b7100000000000000000000000000000000000000000000000000000000600052601160045260246000fd5b7f4e487b7100000000000000000000000000000000000000000000000000000000600052601260045260246000fd5b6000601f19601f8301169050919050565b61178280620002fc6000396000f3fe608060405234801561001057600080fd5b50600436106100625760003560e01c8063449d46c014610067578063516670f4146100835780639a2cdc08146100a1578063a42a4663146100bf578063bd43a908146100ef578063d6d8960d1461010d575b600080fd5b610081600480360381019061007c9190610f19565b61013d565b005b61008b6108a6565b6040516100989190611182565b60405180910390f35b6100a96108cc565b6040516100b69190611324565b60405180910390f35b6100d960048036038101906100d49190610ef0565b610917565b6040516100e69190611324565b60405180910390f35b6100f761092f565b604051610104919061119d565b60405180910390f35b61012760048036038101906101229190610ef0565b610a80565b6040516101349190611324565b60405180910390f35b42603c600360003373ffffffffffffffffffffffffffffffffffffffff1673ffffffffffffffffffffffffffffffffffffffff1681526020019081526020016000205461018a9190611436565b106101ca576040517f08c379a00000000000000000000000000000000000000000000000000000000081526004016101c1906112c4565b60405180910390fd5b42600360003373ffffffffffffffffffffffffffffffffffffffff1673ffffffffffffffffffffffffffffffffffffffff1681526020019081526020016000208190555060018060008282546102209190611436565b925050819055506102676040518060400160405280601781526020017f257320776176656420772f206d6573736167653a2025730000000000000000008152503383610b31565b3373ffffffffffffffffffffffffffffffffffffffff167f5f7e16dc676677766a70e9c5628aa6c54ddb8b6e5188e2ae1e1f17f1ffbea71642836040516102af92919061133f565b60405180910390a2600560405180606001604052803373ffffffffffffffffffffffffffffffffffffffff16815260200183815260200142815250908060018154018082558091505060019003906000526020600020906003020160009091909190915060008201518160000160006101000a81548173ffffffffffffffffffffffffffffffffffffffff021916908373ffffffffffffffffffffffffffffffffffffffff1602179055506020820151816001019080519060200190610376929190610dd0565b506040820151816002015550506001600260003373ffffffffffffffffffffffffffffffffffffffff1673ffffffffffffffffffffffffffffffffffffffff16815260200190815260200160002060008282546103d39190611436565b925050819055506001600260003373ffffffffffffffffffffffffffffffffffffffff1673ffffffffffffffffffffffffffffffffffffffff168152602001908152602001600020541415610466576104616040518060400160405280601f81526020017f25732068617320776176656420666f72207468652066697273742074696d650081525033610bd0565b6104e6565b6104e56040518060400160405280601e81526020017f25732068617320776176656420616c72656164792025732074696d657321000081525033600260003373ffffffffffffffffffffffffffffffffffffffff1673ffffffffffffffffffffffffffffffffffffffff16815260200190815260200160002054610c6c565b5b60008073ffffffffffffffffffffffffffffffffffffffff16600460009054906101000a900473ffffffffffffffffffffffffffffffffffffffff1673ffffffffffffffffffffffffffffffffffffffff1614806105e35750600260003373ffffffffffffffffffffffffffffffffffffffff1673ffffffffffffffffffffffffffffffffffffffff1681526020019081526020016000205460026000600460009054906101000a900473ffffffffffffffffffffffffffffffffffffffff1673ffffffffffffffffffffffffffffffffffffffff1673ffffffffffffffffffffffffffffffffffffffff16815260200190815260200160002054105b801561063d57503373ffffffffffffffffffffffffffffffffffffffff16600460009054906101000a900473ffffffffffffffffffffffffffffffffffffffff1673ffffffffffffffffffffffffffffffffffffffff1614155b156106885733600460006101000a81548173ffffffffffffffffffffffffffffffffffffffff021916908373ffffffffffffffffffffffffffffffffffffffff160217905550600190505b80156106f0576106ef6040518060400160405280600e81526020017f6e6577206b696e6777617665723a000000000000000000000000000000000000815250600460009054906101000a900473ffffffffffffffffffffffffffffffffffffffff16610bd0565b5b606460005442446107019190611436565b61070b9190611436565b610715919061156d565b60008190555061075c6040518060400160405280601681526020017f52616e646f6d20232067656e6572617465643a20256400000000000000000000815250600054610d0b565b6032600054116108a2576107a56040518060400160405280600781526020017f257320776f6e210000000000000000000000000000000000000000000000000081525033610bd0565b6000655af3107a40009050478111156107f3576040517f08c379a00000000000000000000000000000000000000000000000000000000081526004016107ea906112e4565b60405180910390fd5b60003373ffffffffffffffffffffffffffffffffffffffff16826040516108199061116d565b60006040518083038185875af1925050503d8060008114610856576040519150601f19603f3d011682016040523d82523d6000602084013e61085b565b606091505b505090508061089f576040517f08c379a000000000000000000000000000000000000000000000000000000000815260040161089690611304565b60405180910390fd5b50505b5050565b600460009054906101000a900473ffffffffffffffffffffffffffffffffffffffff1681565b600061090f6040518060400160405280601781526020017f5765206861766520256420746f74616c20776176657321000000000000000000815250600154610d0b565b600154905090565b60036020528060005260406000206000915090505481565b60606005805480602002602001604051908101604052809291908181526020016000905b82821015610a7757838290600052602060002090600302016040518060600160405290816000820160009054906101000a900473ffffffffffffffffffffffffffffffffffffffff1673ffffffffffffffffffffffffffffffffffffffff1673ffffffffffffffffffffffffffffffffffffffff1681526020016001820180546109dc9061150a565b80601f0160208091040260200160405190810160405280929190818152602001828054610a089061150a565b8015610a555780601f10610a2a57610100808354040283529160200191610a55565b820191906000526020600020905b815481529060010190602001808311610a3857829003601f168201915b5050505050815260200160028201548152505081526020019060010190610953565b50505050905090565b60026020528060005260406000206000915090505481565b610b2e81604051602401610aac91906111bf565b6040516020818303038152906040527f41304fac000000000000000000000000000000000000000000000000000000007bffffffffffffffffffffffffffffffffffffffffffffffffffffffff19166020820180517bffffffffffffffffffffffffffffffffffffffffffffffffffffffff8381831617835250505050610da7565b50565b610bcb838383604051602401610b4993929190611211565b6040516020818303038152906040527fe0e9ad4f000000000000000000000000000000000000000000000000000000007bffffffffffffffffffffffffffffffffffffffffffffffffffffffff19166020820180517bffffffffffffffffffffffffffffffffffffffffffffffffffffffff8381831617835250505050610da7565b505050565b610c688282604051602401610be69291906111e1565b6040516020818303038152906040527f319af333000000000000000000000000000000000000000000000000000000007bffffffffffffffffffffffffffffffffffffffffffffffffffffffff19166020820180517bffffffffffffffffffffffffffffffffffffffffffffffffffffffff8381831617835250505050610da7565b5050565b610d06838383604051602401610c8493929190611256565b6040516020818303038152906040527f07c81217000000000000000000000000000000000000000000000000000000007bffffffffffffffffffffffffffffffffffffffffffffffffffffffff19166020820180517bffffffffffffffffffffffffffffffffffffffffffffffffffffffff8381831617835250505050610da7565b505050565b610da38282604051602401610d21929190611294565b6040516020818303038152906040527f9710a9d0000000000000000000000000000000000000000000000000000000007bffffffffffffffffffffffffffffffffffffffffffffffffffffffff19166020820180517bffffffffffffffffffffffffffffffffffffffffffffffffffffffff8381831617835250505050610da7565b5050565b60008151905060006a636f6e736f6c652e6c6f679050602083016000808483855afa5050505050565b828054610ddc9061150a565b90600052602060002090601f016020900481019282610dfe5760008555610e45565b82601f10610e1757805160ff1916838001178555610e45565b82800160010185558215610e45579182015b82811115610e44578251825591602001919060010190610e29565b5b509050610e529190610e56565b5090565b5b80821115610e6f576000816000905550600101610e57565b5090565b6000610e86610e8184611394565b61136f565b905082815260208101848484011115610e9e57600080fd5b610ea98482856114c8565b509392505050565b600081359050610ec081611735565b92915050565b600082601f830112610ed757600080fd5b8135610ee7848260208601610e73565b91505092915050565b600060208284031215610f0257600080fd5b6000610f1084828501610eb1565b91505092915050565b600060208284031215610f2b57600080fd5b600082013567ffffffffffffffff811115610f4557600080fd5b610f5184828501610ec6565b91505092915050565b6000610f6683836110ff565b905092915050565b610f778161148c565b82525050565b610f868161148c565b82525050565b6000610f97826113d5565b610fa181856113f8565b935083602082028501610fb3856113c5565b8060005b85811015610fef5784840389528151610fd08582610f5a565b9450610fdb836113eb565b925060208a01995050600181019050610fb7565b50829750879550505050505092915050565b600061100c826113e0565b6110168185611414565b93506110268185602086016114d7565b61102f8161165a565b840191505092915050565b6000611045826113e0565b61104f8185611425565b935061105f8185602086016114d7565b6110688161165a565b840191505092915050565b6000611080600783611425565b915061108b8261166b565b602082019050919050565b60006110a3603483611425565b91506110ae82611694565b604082019050919050565b60006110c6602783611425565b91506110d1826116e3565b604082019050919050565b60006110e9600083611409565b91506110f482611732565b600082019050919050565b60006060830160008301516111176000860182610f6e565b506020830151848203602086015261112f8282611001565b9150506040830151611144604086018261114f565b508091505092915050565b611158816114be565b82525050565b611167816114be565b82525050565b6000611178826110dc565b9150819050919050565b60006020820190506111976000830184610f7d565b92915050565b600060208201905081810360008301526111b78184610f8c565b905092915050565b600060208201905081810360008301526111d9818461103a565b905092915050565b600060408201905081810360008301526111fb818561103a565b905061120a6020830184610f7d565b9392505050565b6000606082019050818103600083015261122b818661103a565b905061123a6020830185610f7d565b818103604083015261124c818461103a565b9050949350505050565b60006060820190508181036000830152611270818661103a565b905061127f6020830185610f7d565b61128c604083018461115e565b949350505050565b600060408201905081810360008301526112ae818561103a565b90506112bd602083018461115e565b9392505050565b600060208201905081810360008301526112dd81611073565b9050919050565b600060208201905081810360008301526112fd81611096565b9050919050565b6000602082019050818103600083015261131d816110b9565b9050919050565b6000602082019050611339600083018461115e565b92915050565b6000604082019050611354600083018561115e565b8181036020830152611366818461103a565b90509392505050565b600061137961138a565b9050611385828261153c565b919050565b6000604051905090565b600067ffffffffffffffff8211156113af576113ae61162b565b5b6113b88261165a565b9050602081019050919050565b6000819050602082019050919050565b600081519050919050565b600081519050919050565b6000602082019050919050565b600082825260208201905092915050565b600081905092915050565b600082825260208201905092915050565b600082825260208201905092915050565b6000611441826114be565b915061144c836114be565b9250827fffffffffffffffffffffffffffffffffffffffffffffffffffffffffffffffff038211156114815761148061159e565b5b828201905092915050565b60006114978261149e565b9050919050565b600073ffffffffffffffffffffffffffffffffffffffff82169050919050565b6000819050919050565b82818337600083830152505050565b60005b838110156114f55780820151818401526020810190506114da565b83811115611504576000848401525b50505050565b6000600282049050600182168061152257607f821691505b60208210811415611536576115356115fc565b5b50919050565b6115458261165a565b810181811067ffffffffffffffff821117156115645761156361162b565b5b80604052505050565b6000611578826114be565b9150611583836114be565b925082611593576115926115cd565b5b828206905092915050565b7f4e487b7100000000000000000000000000000000000000000000000000000000600052601160045260246000fd5b7f4e487b7100000000000000000000000000000000000000000000000000000000600052601260045260246000fd5b7f4e487b7100000000000000000000000000000000000000000000000000000000600052602260045260246000fd5b7f4e487b7100000000000000000000000000000000000000000000000000000000600052604160045260246000fd5b6000601f19601f8301169050919050565b7f5761697420316d00000000000000000000000000000000000000000000000000600082015250565b7f547279696e6720746f207769746864726177206d6f7265206d6f6e657920746860008201527f616e2074686520636f6e7472616374206861732e000000000000000000000000602082015250565b7f4661696c656420746f207769746864726177206d6f6e65792066726f6d20636f60008201527f6e74726163742e00000000000000000000000000000000000000000000000000602082015250565b50565b61173e8161148c565b811461174957600080fd5b5056fea2646970667358221220337842dd9bf68ee4851b2cd87cad5d0b0f19ec6e75929948934f5fe0b28cd35664736f6c63430008040033596f20796f2c204920616d206120636f6e747261637420616e64204920616d20736d617274",
  "linkReferences": {},
  "deployedLinkReferences": {}
}